{
  "contractName": "FundraiserFactory",
  "abi": [
    {
      "anonymous": false,
      "inputs": [
        {
          "indexed": true,
          "internalType": "contract Fundraiser",
          "name": "fundraiser",
          "type": "address"
        },
        {
          "indexed": true,
          "internalType": "address",
          "name": "owner",
          "type": "address"
        }
      ],
      "name": "FundraiserCreated",
      "type": "event"
    },
    {
      "inputs": [],
      "name": "currentId",
      "outputs": [
        {
          "internalType": "uint256",
          "name": "",
          "type": "uint256"
        }
      ],
      "stateMutability": "view",
      "type": "function",
      "constant": true
    },
    {
      "inputs": [
        {
          "internalType": "string",
          "name": "name",
          "type": "string"
        },
        {
          "internalType": "string[]",
          "name": "images",
          "type": "string[]"
        },
        {
          "internalType": "string[]",
          "name": "categories",
          "type": "string[]"
        },
        {
          "internalType": "string",
          "name": "description",
          "type": "string"
        },
        {
          "internalType": "string",
          "name": "region",
          "type": "string"
        },
        {
          "internalType": "address payable",
          "name": "beneficiary",
          "type": "address"
        },
        {
          "internalType": "uint256",
          "name": "goal",
          "type": "uint256"
        }
      ],
      "name": "createFundraiser",
      "outputs": [],
      "stateMutability": "nonpayable",
      "type": "function"
    },
    {
      "inputs": [],
      "name": "fundraisersCount",
      "outputs": [
        {
          "internalType": "uint256",
          "name": "",
          "type": "uint256"
        }
      ],
      "stateMutability": "view",
      "type": "function",
      "constant": true
    },
    {
      "inputs": [
        {
          "internalType": "uint256",
          "name": "limit",
          "type": "uint256"
        },
        {
          "internalType": "uint256",
          "name": "offset",
          "type": "uint256"
        }
      ],
      "name": "fundraisers",
      "outputs": [
        {
          "internalType": "contract Fundraiser[]",
          "name": "coll",
          "type": "address[]"
        }
      ],
      "stateMutability": "view",
      "type": "function",
      "constant": true
    }
  ],
  "bytecode": "0x608060405234801561001057600080fd5b50615107806100206000396000f3fe60806040523480156200001157600080fd5b5060043610620000525760003560e01c806328ac59061462000057578063704914f814620000775780639d3b435514620000ad578063e00dd16114620000cf575b600080fd5b6200007560048036038101906200006f91906200058c565b620000f1565b005b6200009560048036038101906200008f9190620006b6565b62000222565b604051620000a491906200091a565b60405180910390f35b620000b76200043a565b604051620000c6919062000960565b60405180910390f35b620000d962000446565b604051620000e8919062000960565b60405180910390f35b600060015488888888888833896040516200010c906200044c565b62000120999897969594939291906200097d565b604051809103906000f0801580156200013d573d6000803e3d6000fd5b5090506000819080600181540180825580915050600190039060005260206000200160009091909190916101000a81548173ffffffffffffffffffffffffffffffffffffffff021916908373ffffffffffffffffffffffffffffffffffffffff1602179055506001806000828254620001b7919062000b74565b925050819055503373ffffffffffffffffffffffffffffffffffffffff168173ffffffffffffffffffffffffffffffffffffffff167fa2398daac0c8053a1e3c0280916c2ec6bc884f0959c27e639a4db829b7eabfb160405160405180910390a35050505050505050565b60606200022e6200043a565b82111562000273576040517f08c379a00000000000000000000000000000000000000000000000000000000081526004016200026a906200093e565b60405180910390fd5b600082620002806200043a565b6200028c919062000bd1565b90508381106200029d57836200029f565b805b905060148110620002b2576014620002b4565b805b90508067ffffffffffffffff811115620002f7577f4e487b7100000000000000000000000000000000000000000000000000000000600052604160045260246000fd5b604051908082528060200260200182016040528015620003265781602001602082028036833780820191505090505b50915060005b8181101562000432576000818562000345919062000b74565b815481106200037d577f4e487b7100000000000000000000000000000000000000000000000000000000600052603260045260246000fd5b9060005260206000200160009054906101000a900473ffffffffffffffffffffffffffffffffffffffff16838281518110620003e2577f4e487b7100000000000000000000000000000000000000000000000000000000600052603260045260246000fd5b602002602001019073ffffffffffffffffffffffffffffffffffffffff16908173ffffffffffffffffffffffffffffffffffffffff16815250508080620004299062000ccb565b9150506200032c565b505092915050565b60008080549050905090565b60015481565b6143158062000dbd83390190565b6000620004716200046b8462000a73565b62000a3f565b9050808382526020820190508260005b85811015620004b557813585016200049a888262000548565b84526020840193506020830192505060018101905062000481565b5050509392505050565b6000620004d6620004d08462000aa2565b62000a3f565b905082815260208101848484011115620004ef57600080fd5b620004fc84828562000c86565b509392505050565b600081359050620005158162000d88565b92915050565b600082601f8301126200052d57600080fd5b81356200053f8482602086016200045a565b91505092915050565b600082601f8301126200055a57600080fd5b81356200056c848260208601620004bf565b91505092915050565b600081359050620005868162000da2565b92915050565b600080600080600080600060e0888a031215620005a857600080fd5b600088013567ffffffffffffffff811115620005c357600080fd5b620005d18a828b0162000548565b975050602088013567ffffffffffffffff811115620005ef57600080fd5b620005fd8a828b016200051b565b965050604088013567ffffffffffffffff8111156200061b57600080fd5b620006298a828b016200051b565b955050606088013567ffffffffffffffff8111156200064757600080fd5b620006558a828b0162000548565b945050608088013567ffffffffffffffff8111156200067357600080fd5b620006818a828b0162000548565b93505060a0620006948a828b0162000504565b92505060c0620006a78a828b0162000575565b91505092959891949750929550565b60008060408385031215620006ca57600080fd5b6000620006da8582860162000575565b9250506020620006ed8582860162000575565b9150509250929050565b600062000705838362000834565b60208301905092915050565b60006200071f838362000845565b905092915050565b620007328162000c20565b82525050565b620007438162000c0c565b82525050565b6000620007568262000af5565b62000762818562000b30565b93506200076f8362000ad5565b8060005b83811015620007a65781516200078a8882620006f7565b9750620007978362000b16565b92505060018101905062000773565b5085935050505092915050565b6000620007c08262000b00565b620007cc818562000b41565b935083602082028501620007e08562000ae5565b8060005b8581101562000822578484038952815162000800858262000711565b94506200080d8362000b23565b925060208a01995050600181019050620007e4565b50829750879550505050505092915050565b6200083f8162000c5e565b82525050565b6000620008528262000b0b565b6200085e818562000b52565b93506200087081856020860162000c95565b6200087b8162000d77565b840191505092915050565b6000620008938262000b0b565b6200089f818562000b63565b9350620008b181856020860162000c95565b620008bc8162000d77565b840191505092915050565b6000620008d660148362000b63565b91507f6f6666736574206f7574206f6620626f756e64730000000000000000000000006000830152602082019050919050565b620009148162000c54565b82525050565b6000602082019050818103600083015262000936818462000749565b905092915050565b600060208201905081810360008301526200095981620008c7565b9050919050565b600060208201905062000977600083018462000909565b92915050565b60006101208201905062000995600083018c62000909565b8181036020830152620009a9818b62000886565b90508181036040830152620009bf818a620007b3565b90508181036060830152620009d58189620007b3565b90508181036080830152620009eb818862000886565b905081810360a083015262000a01818762000886565b905062000a1260c083018662000727565b62000a2160e083018562000738565b62000a3161010083018462000909565b9a9950505050505050505050565b6000604051905081810181811067ffffffffffffffff8211171562000a695762000a6862000d48565b5b8060405250919050565b600067ffffffffffffffff82111562000a915762000a9062000d48565b5b602082029050602081019050919050565b600067ffffffffffffffff82111562000ac05762000abf62000d48565b5b601f19601f8301169050602081019050919050565b6000819050602082019050919050565b6000819050602082019050919050565b600081519050919050565b600081519050919050565b600081519050919050565b6000602082019050919050565b6000602082019050919050565b600082825260208201905092915050565b600082825260208201905092915050565b600082825260208201905092915050565b600082825260208201905092915050565b600062000b818262000c54565b915062000b8e8362000c54565b9250827fffffffffffffffffffffffffffffffffffffffffffffffffffffffffffffffff0382111562000bc65762000bc562000d19565b5b828201905092915050565b600062000bde8262000c54565b915062000beb8362000c54565b92508282101562000c015762000c0062000d19565b5b828203905092915050565b600062000c198262000c34565b9050919050565b600062000c2d8262000c34565b9050919050565b600073ffffffffffffffffffffffffffffffffffffffff82169050919050565b6000819050919050565b600062000c6b8262000c72565b9050919050565b600062000c7f8262000c34565b9050919050565b82818337600083830152505050565b60005b8381101562000cb557808201518184015260208101905062000c98565b8381111562000cc5576000848401525b50505050565b600062000cd88262000c54565b91507fffffffffffffffffffffffffffffffffffffffffffffffffffffffffffffffff82141562000d0e5762000d0d62000d19565b5b600182019050919050565b7f4e487b7100000000000000000000000000000000000000000000000000000000600052601160045260246000fd5b7f4e487b7100000000000000000000000000000000000000000000000000000000600052604160045260246000fd5b6000601f19601f8301169050919050565b62000d938162000c20565b811462000d9f57600080fd5b50565b62000dad8162000c54565b811462000db957600080fd5b5056fe6080604052600060115560006012553480156200001b57600080fd5b5060405162004315380380620043158339818101604052810190620000419190620004e7565b62000061620000556200014d60201b60201c565b6200015560201b60201c565b8860078190555087600890805190602001906200008092919062000219565b50866009908051906020019062000099929190620002aa565b5085600a9080519060200190620000b2929190620002aa565b5084600b9080519060200190620000cb92919062000219565b5083600c9080519060200190620000e492919062000219565b5082600d60006101000a81548173ffffffffffffffffffffffffffffffffffffffff021916908373ffffffffffffffffffffffffffffffffffffffff16021790555062000137826200015560201b60201c565b806014819055505050505050505050506200083d565b600033905090565b60008060009054906101000a900473ffffffffffffffffffffffffffffffffffffffff169050816000806101000a81548173ffffffffffffffffffffffffffffffffffffffff021916908373ffffffffffffffffffffffffffffffffffffffff1602179055508173ffffffffffffffffffffffffffffffffffffffff168173ffffffffffffffffffffffffffffffffffffffff167f8be0079c531659141344cd1fd0a4f28419497f9722a3daafe3b4186f6b6457e060405160405180910390a35050565b82805462000227906200075b565b90600052602060002090601f0160209004810192826200024b576000855562000297565b82601f106200026657805160ff191683800117855562000297565b8280016001018555821562000297579182015b828111156200029657825182559160200191906001019062000279565b5b509050620002a6919062000311565b5090565b828054828255906000526020600020908101928215620002fe579160200282015b82811115620002fd578251829080519060200190620002ec92919062000219565b5091602001919060010190620002cb565b5b5090506200030d919062000330565b5090565b5b808211156200032c57600081600090555060010162000312565b5090565b5b808211156200035457600081816200034a919062000358565b5060010162000331565b5090565b50805462000366906200075b565b6000825580601f106200037a57506200039b565b601f0160209004906000526020600020908101906200039a919062000311565b5b50565b6000620003b5620003af8462000671565b6200063d565b9050808382526020820190508260005b85811015620003f95781518501620003de8882620004a3565b845260208401935060208301925050600181019050620003c5565b5050509392505050565b60006200041a6200041484620006a0565b6200063d565b9050828152602081018484840111156200043357600080fd5b6200044084828562000725565b509392505050565b6000815190506200045981620007ef565b92915050565b600081519050620004708162000809565b92915050565b600082601f8301126200048857600080fd5b81516200049a8482602086016200039e565b91505092915050565b600082601f830112620004b557600080fd5b8151620004c784826020860162000403565b91505092915050565b600081519050620004e18162000823565b92915050565b60008060008060008060008060006101208a8c0312156200050757600080fd5b6000620005178c828d01620004d0565b99505060208a015167ffffffffffffffff8111156200053557600080fd5b620005438c828d01620004a3565b98505060408a015167ffffffffffffffff8111156200056157600080fd5b6200056f8c828d0162000476565b97505060608a015167ffffffffffffffff8111156200058d57600080fd5b6200059b8c828d0162000476565b96505060808a015167ffffffffffffffff811115620005b957600080fd5b620005c78c828d01620004a3565b95505060a08a015167ffffffffffffffff811115620005e557600080fd5b620005f38c828d01620004a3565b94505060c0620006068c828d016200045f565b93505060e0620006198c828d0162000448565b9250506101006200062d8c828d01620004d0565b9150509295985092959850929598565b6000604051905081810181811067ffffffffffffffff82111715620006675762000666620007c0565b5b8060405250919050565b600067ffffffffffffffff8211156200068f576200068e620007c0565b5b602082029050602081019050919050565b600067ffffffffffffffff821115620006be57620006bd620007c0565b5b601f19601f8301169050602081019050919050565b6000620006e082620006fb565b9050919050565b6000620006f482620006fb565b9050919050565b600073ffffffffffffffffffffffffffffffffffffffff82169050919050565b6000819050919050565b60005b838110156200074557808201518184015260208101905062000728565b8381111562000755576000848401525b50505050565b600060028204905060018216806200077457607f821691505b602082108114156200078b576200078a62000791565b5b50919050565b7f4e487b7100000000000000000000000000000000000000000000000000000000600052602260045260246000fd5b7f4e487b7100000000000000000000000000000000000000000000000000000000600052604160045260246000fd5b620007fa81620006d3565b81146200080657600080fd5b50565b6200081481620006e7565b81146200082057600080fd5b50565b6200082e816200071b565b81146200083a57600080fd5b50565b613ac8806200084d6000396000f3fe6080604052600436106102085760003560e01c80635d242f7d11610118578063c9d27afe116100a0578063dfe0039b1161006f578063dfe0039b14610782578063e7ae1d1d146107af578063ed88c68e146107f0578063eea2a953146107fa578063f2fde38b1461082557610242565b8063c9d27afe146106c6578063d2a67515146106ef578063da35c6641461072c578063de2ed8931461075757610242565b80637284e416116100e75780637284e416146105cb57806384856482146105f65780638da5cb5b14610633578063af640d0f1461065e578063c6cdbe5e1461068957610242565b80635d242f7d1461053757806362564c481461056057806365e481e21461058b578063715018a6146105b457610242565b80631f5225951161019b5780633fa095da1161016a5780633fa095da1461044e578063401938831461047957806342545825146104a45780634db0412c146104e15780635062d68d1461050c57610242565b80631f522595146103b6578063375b74c3146103e157806338af3eed1461040c5780633ccfd60b1461043757610242565b8063146feaa2116101d7578063146feaa21461030b5780631868611b146103365780631a57f7b4146103615780631c31f7101461038d57610242565b8063013cf08b146102475780630180b97c1461028a57806306fdde03146102b55780630fd63e8e146102e057610242565b366102425761022234600f5461084e90919063ffffffff16565b600f819055506013600081548092919061023b9061394f565b9190505550005b600080fd5b34801561025357600080fd5b5061026e60048036038101906102699190612c1d565b610864565b60405161028197969594939291906135bd565b60405180910390f35b34801561029657600080fd5b5061029f6109c3565b6040516102ac91906134a2565b60405180910390f35b3480156102c157600080fd5b506102ca610a0d565b6040516102d791906133e0565b60405180910390f35b3480156102ec57600080fd5b506102f5610a9b565b60405161030291906134a2565b60405180910390f35b34801561031757600080fd5b50610320610aa1565b60405161032d919061334a565b60405180910390f35b34801561034257600080fd5b5061034b610d86565b6040516103589190613328565b60405180910390f35b34801561036d57600080fd5b50610376610e5f565b60405161038492919061338e565b60405180910390f35b34801561039957600080fd5b506103b460048036038101906103af9190612ab5565b611092565b005b3480156103c257600080fd5b506103cb611152565b6040516103d891906134a2565b60405180910390f35b3480156103ed57600080fd5b506103f6611158565b60405161040391906132a6565b60405180910390f35b34801561041857600080fd5b5061042161117e565b60405161042e91906132c1565b60405180910390f35b34801561044357600080fd5b5061044c6111a4565b005b34801561045a57600080fd5b506104636112c8565b60405161047091906134a2565b60405180910390f35b34801561048557600080fd5b5061048e6112e8565b60405161049b91906134a2565b60405180910390f35b3480156104b057600080fd5b506104cb60048036038101906104c69190612ade565b6112ee565b6040516104d891906133c5565b60405180910390f35b3480156104ed57600080fd5b506104f661131d565b6040516105039190613328565b60405180910390f35b34801561051857600080fd5b506105216113f6565b60405161052e91906133e0565b60405180910390f35b34801561054357600080fd5b5061055e60048036038101906105599190612b86565b611484565b005b34801561056c57600080fd5b5061057561160a565b604051610582919061336c565b60405180910390f35b34801561059757600080fd5b506105b260048036038101906105ad9190612b1a565b61188c565b005b3480156105c057600080fd5b506105c9611a3c565b005b3480156105d757600080fd5b506105e0611ac4565b6040516105ed91906133e0565b60405180910390f35b34801561060257600080fd5b5061061d60048036038101906106189190612c1d565b611b52565b60405161062a91906133e0565b60405180910390f35b34801561063f57600080fd5b50610648611bfe565b60405161065591906132a6565b60405180910390f35b34801561066a57600080fd5b50610673611c27565b60405161068091906134a2565b60405180910390f35b34801561069557600080fd5b506106b060048036038101906106ab9190612c1d565b611c2d565b6040516106bd91906133e0565b60405180910390f35b3480156106d257600080fd5b506106ed60048036038101906106e89190612c46565b611cd9565b005b3480156106fb57600080fd5b5061071660048036038101906107119190612a8c565b611f8e565b60405161072391906133c5565b60405180910390f35b34801561073857600080fd5b50610741611fae565b60405161074e91906134a2565b60405180910390f35b34801561076357600080fd5b5061076c611fb4565b60405161077991906134a2565b60405180910390f35b34801561078e57600080fd5b50610797611fba565b6040516107a6939291906132dc565b60405180910390f35b3480156107bb57600080fd5b506107d660048036038101906107d19190612c1d565b6122cf565b6040516107e79594939291906134e6565b60405180910390f35b6107f861249d565b005b34801561080657600080fd5b5061080f6126f5565b60405161081c91906134a2565b60405180910390f35b34801561083157600080fd5b5061084c60048036038101906108479190612a8c565b6126fb565b005b6000818361085c91906137e5565b905092915050565b600360205280600052604060002060009150905080600001549080600101805461088d9061391d565b80601f01602080910402602001604051908101604052809291908181526020018280546108b99061391d565b80156109065780601f106108db57610100808354040283529160200191610906565b820191906000526020600020905b8154815290600101906020018083116108e957829003601f168201915b50505050509080600201805461091b9061391d565b80601f01602080910402602001604051908101604052809291908181526020018280546109479061391d565b80156109945780601f1061096957610100808354040283529160200191610994565b820191906000526020600020905b81548152906001019060200180831161097757829003601f168201915b5050505050908060030154908060040154908060050154908060060160009054906101000a900460ff16905087565b6000600160003373ffffffffffffffffffffffffffffffffffffffff1673ffffffffffffffffffffffffffffffffffffffff16815260200190815260200160002080549050905090565b60088054610a1a9061391d565b80601f0160208091040260200160405190810160405280929190818152602001828054610a469061391d565b8015610a935780601f10610a6857610100808354040283529160200191610a93565b820191906000526020600020905b815481529060010190602001808311610a7657829003601f168201915b505050505081565b60105481565b6060600060125467ffffffffffffffff811115610ae7577f4e487b7100000000000000000000000000000000000000000000000000000000600052604160045260246000fd5b604051908082528060200260200182016040528015610b2057816020015b610b0d6128bf565b815260200190600190039081610b055790505b5090506000600190505b6012548111610d7e57600460008281526020019081526020016000206040518060a001604052908160008201548152602001600182018054610b6b9061391d565b80601f0160208091040260200160405190810160405280929190818152602001828054610b979061391d565b8015610be45780601f10610bb957610100808354040283529160200191610be4565b820191906000526020600020905b815481529060010190602001808311610bc757829003601f168201915b50505050508152602001600282018054610bfd9061391d565b80601f0160208091040260200160405190810160405280929190818152602001828054610c299061391d565b8015610c765780601f10610c4b57610100808354040283529160200191610c76565b820191906000526020600020905b815481529060010190602001808311610c5957829003601f168201915b50505050508152602001600382018054610c8f9061391d565b80601f0160208091040260200160405190810160405280929190818152602001828054610cbb9061391d565b8015610d085780601f10610cdd57610100808354040283529160200191610d08565b820191906000526020600020905b815481529060010190602001808311610ceb57829003601f168201915b5050505050815260200160048201548152505082600183610d29919061383b565b81518110610d60577f4e487b7100000000000000000000000000000000000000000000000000000000600052603260045260246000fd5b60200260200101819052508080610d769061394f565b915050610b2a565b508091505090565b60606009805480602002602001604051908101604052809291908181526020016000905b82821015610e56578382906000526020600020018054610dc99061391d565b80601f0160208091040260200160405190810160405280929190818152602001828054610df59061391d565b8015610e425780601f10610e1757610100808354040283529160200191610e42565b820191906000526020600020905b815481529060010190602001808311610e2557829003601f168201915b505050505081526020019060010190610daa565b50505050905090565b6060806000610e6c6109c3565b90508067ffffffffffffffff811115610eae577f4e487b7100000000000000000000000000000000000000000000000000000000600052604160045260246000fd5b604051908082528060200260200182016040528015610edc5781602001602082028036833780820191505090505b5092508067ffffffffffffffff811115610f1f577f4e487b7100000000000000000000000000000000000000000000000000000000600052604160045260246000fd5b604051908082528060200260200182016040528015610f4d5781602001602082028036833780820191505090505b50915060005b8181101561108c576000600160003373ffffffffffffffffffffffffffffffffffffffff1673ffffffffffffffffffffffffffffffffffffffff1681526020019081526020016000208281548110610fd4577f4e487b7100000000000000000000000000000000000000000000000000000000600052603260045260246000fd5b906000526020600020906002020190508060000154858381518110611022577f4e487b7100000000000000000000000000000000000000000000000000000000600052603260045260246000fd5b602002602001018181525050806001015484838151811061106c577f4e487b7100000000000000000000000000000000000000000000000000000000600052603260045260246000fd5b6020026020010181815250505080806110849061394f565b915050610f53565b50509091565b61109a6127f3565b73ffffffffffffffffffffffffffffffffffffffff166110b8611bfe565b73ffffffffffffffffffffffffffffffffffffffff161461110e576040517f08c379a000000000000000000000000000000000000000000000000000000000815260040161110590613462565b60405180910390fd5b80600d60006101000a81548173ffffffffffffffffffffffffffffffffffffffff021916908373ffffffffffffffffffffffffffffffffffffffff16021790555050565b60135481565b600e60009054906101000a900473ffffffffffffffffffffffffffffffffffffffff1681565b600d60009054906101000a900473ffffffffffffffffffffffffffffffffffffffff1681565b6111ac6127f3565b73ffffffffffffffffffffffffffffffffffffffff166111ca611bfe565b73ffffffffffffffffffffffffffffffffffffffff1614611220576040517f08c379a000000000000000000000000000000000000000000000000000000000815260040161121790613462565b60405180910390fd5b6000479050600d60009054906101000a900473ffffffffffffffffffffffffffffffffffffffff1673ffffffffffffffffffffffffffffffffffffffff166108fc829081150290604051600060405180830381858888f1935050505015801561128d573d6000803e3d6000fd5b507f5b6b431d4476a211bb7d41c20d1aab9ae2321deee0d20be3d9fc9b1093fa6e3d816040516112bd91906134a2565b60405180910390a150565b600060026000600754815260200190815260200160002080549050905090565b60145481565b60066020528160005260406000206020528060005260406000206000915091509054906101000a900460ff1681565b6060600a805480602002602001604051908101604052809291908181526020016000905b828210156113ed5783829060005260206000200180546113609061391d565b80601f016020809104026020016040519081016040528092919081815260200182805461138c9061391d565b80156113d95780601f106113ae576101008083540402835291602001916113d9565b820191906000526020600020905b8154815290600101906020018083116113bc57829003601f168201915b505050505081526020019060010190611341565b50505050905090565b600c80546114039061391d565b80601f016020809104026020016040519081016040528092919081815260200182805461142f9061391d565b801561147c5780601f106114515761010080835404028352916020019161147c565b820191906000526020600020905b81548152906001019060200180831161145f57829003601f168201915b505050505081565b61148c6127f3565b73ffffffffffffffffffffffffffffffffffffffff166114aa611bfe565b73ffffffffffffffffffffffffffffffffffffffff1614611500576040517f08c379a00000000000000000000000000000000000000000000000000000000081526004016114f790613462565b60405180910390fd5b601260008154809291906115139061394f565b91905055506040518060a0016040528060125481526020018481526020018381526020018281526020014281525060046000601254815260200190815260200160002060008201518160000155602082015181600101908051906020019061157c9291906128ee565b5060408201518160020190805190602001906115999291906128ee565b5060608201518160030190805190602001906115b69291906128ee565b50608082015181600401559050507f9d76f8faaebdcb75dbdd50cb3d90707a879bc7ef49bad411c8bc60f1b512d46c601254848484426040516115fd9594939291906134e6565b60405180910390a1505050565b6060600060115467ffffffffffffffff811115611650577f4e487b7100000000000000000000000000000000000000000000000000000000600052604160045260246000fd5b60405190808252806020026020018201604052801561168957816020015b611676612974565b81526020019060019003908161166e5790505b5090506000600190505b601154811161188457600360008281526020019081526020016000206040518060e0016040529081600082015481526020016001820180546116d49061391d565b80601f01602080910402602001604051908101604052809291908181526020018280546117009061391d565b801561174d5780601f106117225761010080835404028352916020019161174d565b820191906000526020600020905b81548152906001019060200180831161173057829003601f168201915b505050505081526020016002820180546117669061391d565b80601f01602080910402602001604051908101604052809291908181526020018280546117929061391d565b80156117df5780601f106117b4576101008083540402835291602001916117df565b820191906000526020600020905b8154815290600101906020018083116117c257829003601f168201915b505050505081526020016003820154815260200160048201548152602001600582015481526020016006820160009054906101000a900460ff1615151515815250508260018361182f919061383b565b81518110611866577f4e487b7100000000000000000000000000000000000000000000000000000000600052603260045260246000fd5b6020026020010181905250808061187c9061394f565b915050611693565b508091505090565b6118946127f3565b73ffffffffffffffffffffffffffffffffffffffff166118b2611bfe565b73ffffffffffffffffffffffffffffffffffffffff1614611908576040517f08c379a00000000000000000000000000000000000000000000000000000000081526004016118ff90613462565b60405180910390fd5b6011600081548092919061191b9061394f565b91905055506040518060e0016040528060115481526020018381526020018281526020014281526020016000815260200160008152602001600115158152506003600060115481526020019081526020016000206000820151816000015560208201518160010190805190602001906119959291906128ee565b5060408201518160020190805190602001906119b29291906128ee565b50606082015181600301556080820151816004015560a0820151816005015560c08201518160060160006101000a81548160ff0219169083151502179055509050507ff5a04a0da7c9f4ee409dac8b5bf35a16c51040240c00ceb949e6ac6f7c41e52e601154838342600080604051611a309695949392919061354e565b60405180910390a15050565b611a446127f3565b73ffffffffffffffffffffffffffffffffffffffff16611a62611bfe565b73ffffffffffffffffffffffffffffffffffffffff1614611ab8576040517f08c379a0000000000000000000000000000000000000000000000000000000008152600401611aaf90613462565b60405180910390fd5b611ac260006127fb565b565b600b8054611ad19061391d565b80601f0160208091040260200160405190810160405280929190818152602001828054611afd9061391d565b8015611b4a5780601f10611b1f57610100808354040283529160200191611b4a565b820191906000526020600020905b815481529060010190602001808311611b2d57829003601f168201915b505050505081565b60098181548110611b6257600080fd5b906000526020600020016000915090508054611b7d9061391d565b80601f0160208091040260200160405190810160405280929190818152602001828054611ba99061391d565b8015611bf65780601f10611bcb57610100808354040283529160200191611bf6565b820191906000526020600020905b815481529060010190602001808311611bd957829003601f168201915b505050505081565b60008060009054906101000a900473ffffffffffffffffffffffffffffffffffffffff16905090565b60075481565b600a8181548110611c3d57600080fd5b906000526020600020016000915090508054611c589061391d565b80601f0160208091040260200160405190810160405280929190818152602001828054611c849061391d565b8015611cd15780601f10611ca657610100808354040283529160200191611cd1565b820191906000526020600020905b815481529060010190602001808311611cb457829003601f168201915b505050505081565b60011515600560003373ffffffffffffffffffffffffffffffffffffffff1673ffffffffffffffffffffffffffffffffffffffff16815260200190815260200160002060009054906101000a900460ff16151514611d6c576040517f08c379a0000000000000000000000000000000000000000000000000000000008152600401611d6390613422565b60405180910390fd5b6003600083815260200190815260200160002060060160009054906101000a900460ff16611dcf576040517f08c379a0000000000000000000000000000000000000000000000000000000008152600401611dc690613442565b60405180910390fd5b600660003373ffffffffffffffffffffffffffffffffffffffff1673ffffffffffffffffffffffffffffffffffffffff168152602001908152602001600020600083815260200190815260200160002060009054906101000a900460ff1615611e6d576040517f08c379a0000000000000000000000000000000000000000000000000000000008152600401611e6490613482565b60405180910390fd5b8015611ea457600360008381526020019081526020016000206004016000815480929190611e9a9061394f565b9190505550611ed1565b600360008381526020019081526020016000206005016000815480929190611ecb9061394f565b91905055505b6001600660003373ffffffffffffffffffffffffffffffffffffffff1673ffffffffffffffffffffffffffffffffffffffff168152602001908152602001600020600084815260200190815260200160002060006101000a81548160ff0219169083151502179055503373ffffffffffffffffffffffffffffffffffffffff167ff2913dbe661ee2acc4a046d8fbcdc792373bda34c41c6086484b5345e5785e5f8383604051611f829291906134bd565b60405180910390a25050565b60056020528060005260406000206000915054906101000a900460ff1681565b60115481565b600f5481565b60608060606000611fc96112c8565b90508067ffffffffffffffff81111561200b577f4e487b7100000000000000000000000000000000000000000000000000000000600052604160045260246000fd5b6040519080825280602002602001820160405280156120395781602001602082028036833780820191505090505b5093508067ffffffffffffffff81111561207c577f4e487b7100000000000000000000000000000000000000000000000000000000600052604160045260246000fd5b6040519080825280602002602001820160405280156120aa5781602001602082028036833780820191505090505b5092508067ffffffffffffffff8111156120ed577f4e487b7100000000000000000000000000000000000000000000000000000000600052604160045260246000fd5b60405190808252806020026020018201604052801561211b5781602001602082028036833780820191505090505b50915060005b818110156122c85760006002600060075481526020019081526020016000208281548110612178577f4e487b7100000000000000000000000000000000000000000000000000000000600052603260045260246000fd5b906000526020600020906003020190508060000160009054906101000a900473ffffffffffffffffffffffffffffffffffffffff168683815181106121e6577f4e487b7100000000000000000000000000000000000000000000000000000000600052603260045260246000fd5b602002602001019073ffffffffffffffffffffffffffffffffffffffff16908173ffffffffffffffffffffffffffffffffffffffff1681525050806001015485838151811061225e577f4e487b7100000000000000000000000000000000000000000000000000000000600052603260045260246000fd5b60200260200101818152505080600201548483815181106122a8577f4e487b7100000000000000000000000000000000000000000000000000000000600052603260045260246000fd5b6020026020010181815250505080806122c09061394f565b915050612121565b5050909192565b60046020528060005260406000206000915090508060000154908060010180546122f89061391d565b80601f01602080910402602001604051908101604052809291908181526020018280546123249061391d565b80156123715780601f1061234657610100808354040283529160200191612371565b820191906000526020600020905b81548152906001019060200180831161235457829003601f168201915b5050505050908060020180546123869061391d565b80601f01602080910402602001604051908101604052809291908181526020018280546123b29061391d565b80156123ff5780601f106123d4576101008083540402835291602001916123ff565b820191906000526020600020905b8154815290600101906020018083116123e257829003601f168201915b5050505050908060030180546124149061391d565b80601f01602080910402602001604051908101604052809291908181526020018280546124409061391d565b801561248d5780601f106124625761010080835404028352916020019161248d565b820191906000526020600020905b81548152906001019060200180831161247057829003601f168201915b5050505050908060040154905085565b60006040518060400160405280348152602001428152509050600060405180606001604052803373ffffffffffffffffffffffffffffffffffffffff168152602001348152602001428152509050600160003373ffffffffffffffffffffffffffffffffffffffff1673ffffffffffffffffffffffffffffffffffffffff1681526020019081526020016000208290806001815401808255809150506001900390600052602060002090600202016000909190919091506000820151816000015560208201518160010155505060026000600754815260200190815260200160002081908060018154018082558091505060019003906000526020600020906003020160009091909190915060008201518160000160006101000a81548173ffffffffffffffffffffffffffffffffffffffff021916908373ffffffffffffffffffffffffffffffffffffffff1602179055506020820151816001015560408201518160020155505061261b34600f5461084e90919063ffffffff16565b600f81905550600160135461263091906137e5565b601381905550600160105461264591906137e5565b6010819055506001600560003373ffffffffffffffffffffffffffffffffffffffff1673ffffffffffffffffffffffffffffffffffffffff16815260200190815260200160002060006101000a81548160ff0219169083151502179055503373ffffffffffffffffffffffffffffffffffffffff167f264f630d9efa0d07053a31163641d9fcc0adafc9d9e76f1c37c2ce3a558d2c52346040516126e991906134a2565b60405180910390a25050565b60125481565b6127036127f3565b73ffffffffffffffffffffffffffffffffffffffff16612721611bfe565b73ffffffffffffffffffffffffffffffffffffffff1614612777576040517f08c379a000000000000000000000000000000000000000000000000000000000815260040161276e90613462565b60405180910390fd5b600073ffffffffffffffffffffffffffffffffffffffff168173ffffffffffffffffffffffffffffffffffffffff1614156127e7576040517f08c379a00000000000000000000000000000000000000000000000000000000081526004016127de90613402565b60405180910390fd5b6127f0816127fb565b50565b600033905090565b60008060009054906101000a900473ffffffffffffffffffffffffffffffffffffffff169050816000806101000a81548173ffffffffffffffffffffffffffffffffffffffff021916908373ffffffffffffffffffffffffffffffffffffffff1602179055508173ffffffffffffffffffffffffffffffffffffffff168173ffffffffffffffffffffffffffffffffffffffff167f8be0079c531659141344cd1fd0a4f28419497f9722a3daafe3b4186f6b6457e060405160405180910390a35050565b6040518060a0016040528060008152602001606081526020016060815260200160608152602001600081525090565b8280546128fa9061391d565b90600052602060002090601f01602090048101928261291c5760008555612963565b82601f1061293557805160ff1916838001178555612963565b82800160010185558215612963579182015b82811115612962578251825591602001919060010190612947565b5b50905061297091906129b3565b5090565b6040518060e001604052806000815260200160608152602001606081526020016000815260200160008152602001600081526020016000151581525090565b5b808211156129cc5760008160009055506001016129b4565b5090565b60006129e36129de8461366b565b61363a565b9050828152602081018484840111156129fb57600080fd5b612a068482856138db565b509392505050565b600081359050612a1d81613a36565b92915050565b600081359050612a3281613a4d565b92915050565b600081359050612a4781613a64565b92915050565b600082601f830112612a5e57600080fd5b8135612a6e8482602086016129d0565b91505092915050565b600081359050612a8681613a7b565b92915050565b600060208284031215612a9e57600080fd5b6000612aac84828501612a0e565b91505092915050565b600060208284031215612ac757600080fd5b6000612ad584828501612a23565b91505092915050565b60008060408385031215612af157600080fd5b6000612aff85828601612a0e565b9250506020612b1085828601612a77565b9150509250929050565b60008060408385031215612b2d57600080fd5b600083013567ffffffffffffffff811115612b4757600080fd5b612b5385828601612a4d565b925050602083013567ffffffffffffffff811115612b7057600080fd5b612b7c85828601612a4d565b9150509250929050565b600080600060608486031215612b9b57600080fd5b600084013567ffffffffffffffff811115612bb557600080fd5b612bc186828701612a4d565b935050602084013567ffffffffffffffff811115612bde57600080fd5b612bea86828701612a4d565b925050604084013567ffffffffffffffff811115612c0757600080fd5b612c1386828701612a4d565b9150509250925092565b600060208284031215612c2f57600080fd5b6000612c3d84828501612a77565b91505092915050565b60008060408385031215612c5957600080fd5b6000612c6785828601612a77565b9250506020612c7885828601612a38565b9150509250929050565b6000612c8e8383612cfd565b60208301905092915050565b6000612ca68383612f63565b905092915050565b6000612cba8383613161565b905092915050565b6000612cce83836131e5565b905092915050565b6000612ce28383613288565b60208301905092915050565b612cf781613881565b82525050565b612d068161386f565b82525050565b612d158161386f565b82525050565b6000612d26826136eb565b612d30818561376e565b9350612d3b8361369b565b8060005b83811015612d6c578151612d538882612c82565b9750612d5e8361372d565b925050600181019050612d3f565b5085935050505092915050565b6000612d84826136f6565b612d8e818561377f565b935083602082028501612da0856136ab565b8060005b85811015612ddc5784840389528151612dbd8582612c9a565b9450612dc88361373a565b925060208a01995050600181019050612da4565b50829750879550505050505092915050565b6000612df982613701565b612e038185613790565b935083602082028501612e15856136bb565b8060005b85811015612e515784840389528151612e328582612cae565b9450612e3d83613747565b925060208a01995050600181019050612e19565b50829750879550505050505092915050565b6000612e6e8261370c565b612e7881856137a1565b935083602082028501612e8a856136cb565b8060005b85811015612ec65784840389528151612ea78582612cc2565b9450612eb283613754565b925060208a01995050600181019050612e8e565b50829750879550505050505092915050565b6000612ee382613717565b612eed81856137b2565b9350612ef8836136db565b8060005b83811015612f29578151612f108882612cd6565b9750612f1b83613761565b925050600181019050612efc565b5085935050505092915050565b612f3f81613893565b82525050565b612f4e81613893565b82525050565b612f5d816138c9565b82525050565b6000612f6e82613722565b612f7881856137c3565b9350612f888185602086016138ea565b612f9181613a25565b840191505092915050565b6000612fa782613722565b612fb181856137d4565b9350612fc18185602086016138ea565b612fca81613a25565b840191505092915050565b6000612fe26026836137d4565b91507f4f776e61626c653a206e6577206f776e657220697320746865207a65726f206160008301527f64647265737300000000000000000000000000000000000000000000000000006020830152604082019050919050565b60006130486014836137d4565b91507f4f6e6c7920646f6e6f72732063616e20766f74650000000000000000000000006000830152602082019050919050565b60006130886017836137d4565b91507f50726f706f73616c20646f6573206e6f742065786973740000000000000000006000830152602082019050919050565b60006130c86020836137d4565b91507f4f776e61626c653a2063616c6c6572206973206e6f7420746865206f776e65726000830152602082019050919050565b60006131086027836137d4565b91507f596f75206861766520616c726561647920766f746564206f6e2074686973207060008301527f726f706f73616c000000000000000000000000000000000000000000000000006020830152604082019050919050565b600060a0830160008301516131796000860182613288565b50602083015184820360208601526131918282612f63565b915050604083015184820360408601526131ab8282612f63565b915050606083015184820360608601526131c58282612f63565b91505060808301516131da6080860182613288565b508091505092915050565b600060e0830160008301516131fd6000860182613288565b50602083015184820360208601526132158282612f63565b9150506040830151848203604086015261322f8282612f63565b91505060608301516132446060860182613288565b5060808301516132576080860182613288565b5060a083015161326a60a0860182613288565b5060c083015161327d60c0860182612f36565b508091505092915050565b613291816138bf565b82525050565b6132a0816138bf565b82525050565b60006020820190506132bb6000830184612d0c565b92915050565b60006020820190506132d66000830184612cee565b92915050565b600060608201905081810360008301526132f68186612d1b565b9050818103602083015261330a8185612ed8565b9050818103604083015261331e8184612ed8565b9050949350505050565b600060208201905081810360008301526133428184612d79565b905092915050565b600060208201905081810360008301526133648184612dee565b905092915050565b600060208201905081810360008301526133868184612e63565b905092915050565b600060408201905081810360008301526133a88185612ed8565b905081810360208301526133bc8184612ed8565b90509392505050565b60006020820190506133da6000830184612f45565b92915050565b600060208201905081810360008301526133fa8184612f9c565b905092915050565b6000602082019050818103600083015261341b81612fd5565b9050919050565b6000602082019050818103600083015261343b8161303b565b9050919050565b6000602082019050818103600083015261345b8161307b565b9050919050565b6000602082019050818103600083015261347b816130bb565b9050919050565b6000602082019050818103600083015261349b816130fb565b9050919050565b60006020820190506134b76000830184613297565b92915050565b60006040820190506134d26000830185613297565b6134df6020830184612f45565b9392505050565b600060a0820190506134fb6000830188613297565b818103602083015261350d8187612f9c565b905081810360408301526135218186612f9c565b905081810360608301526135358185612f9c565b90506135446080830184613297565b9695505050505050565b600060c0820190506135636000830189613297565b81810360208301526135758188612f9c565b905081810360408301526135898187612f9c565b90506135986060830186613297565b6135a56080830185612f54565b6135b260a0830184612f54565b979650505050505050565b600060e0820190506135d2600083018a613297565b81810360208301526135e48189612f9c565b905081810360408301526135f88188612f9c565b90506136076060830187613297565b6136146080830186613297565b61362160a0830185613297565b61362e60c0830184612f45565b98975050505050505050565b6000604051905081810181811067ffffffffffffffff82111715613661576136606139f6565b5b8060405250919050565b600067ffffffffffffffff821115613686576136856139f6565b5b601f19601f8301169050602081019050919050565b6000819050602082019050919050565b6000819050602082019050919050565b6000819050602082019050919050565b6000819050602082019050919050565b6000819050602082019050919050565b600081519050919050565b600081519050919050565b600081519050919050565b600081519050919050565b600081519050919050565b600081519050919050565b6000602082019050919050565b6000602082019050919050565b6000602082019050919050565b6000602082019050919050565b6000602082019050919050565b600082825260208201905092915050565b600082825260208201905092915050565b600082825260208201905092915050565b600082825260208201905092915050565b600082825260208201905092915050565b600082825260208201905092915050565b600082825260208201905092915050565b60006137f0826138bf565b91506137fb836138bf565b9250827fffffffffffffffffffffffffffffffffffffffffffffffffffffffffffffffff038211156138305761382f613998565b5b828201905092915050565b6000613846826138bf565b9150613851836138bf565b92508282101561386457613863613998565b5b828203905092915050565b600061387a8261389f565b9050919050565b600061388c8261389f565b9050919050565b60008115159050919050565b600073ffffffffffffffffffffffffffffffffffffffff82169050919050565b6000819050919050565b60006138d4826138bf565b9050919050565b82818337600083830152505050565b60005b838110156139085780820151818401526020810190506138ed565b83811115613917576000848401525b50505050565b6000600282049050600182168061393557607f821691505b60208210811415613949576139486139c7565b5b50919050565b600061395a826138bf565b91507fffffffffffffffffffffffffffffffffffffffffffffffffffffffffffffffff82141561398d5761398c613998565b5b600182019050919050565b7f4e487b7100000000000000000000000000000000000000000000000000000000600052601160045260246000fd5b7f4e487b7100000000000000000000000000000000000000000000000000000000600052602260045260246000fd5b7f4e487b7100000000000000000000000000000000000000000000000000000000600052604160045260246000fd5b6000601f19601f8301169050919050565b613a3f8161386f565b8114613a4a57600080fd5b50565b613a5681613881565b8114613a6157600080fd5b50565b613a6d81613893565b8114613a7857600080fd5b50565b613a84816138bf565b8114613a8f57600080fd5b5056fea26469706673582212200b48c443e6305559be6e1edd4bfdea0d4d483e0d874bda784582ae2b01b80d4564736f6c63430008000033a2646970667358221220ccdfae10c16ecba888b73c6e6906981bafee6a6eee898ad91e03917aee85bf1c64736f6c63430008000033",
  "immutableReferences": {},
  "source": "// SPDX-License-Identifier: MIT\npragma solidity ^0.8.0;\n\nimport \"./Fundraiser.sol\";\n\ncontract FundraiserFactory {\n  Fundraiser[] private _fundraisers;\n\n  event FundraiserCreated(Fundraiser indexed fundraiser, address indexed owner);\n\n  uint256 constant maxLimit = 20;\n\n  uint256 public currentId;\n\n  function createFundraiser(\n    string memory name,\n    string[] memory images,\n    string[] memory categories,\n    string memory description,\n    string memory region,\n    address payable beneficiary,\n    uint256 goal\n  )\n  public\n  {\n    Fundraiser fundraiser = new Fundraiser(\n      currentId,\n      name,\n      images,\n      categories,\n      description,\n      region,\n      beneficiary,\n      msg.sender,\n      goal\n    );\n    _fundraisers.push(fundraiser);\n    currentId += 1;\n    emit FundraiserCreated(fundraiser, msg.sender);\n  }\n\n  // Query the number of fundrisers in our smart contract\n  function fundraisersCount() public view returns(uint256) {\n    return _fundraisers.length;\n  }\n\n  // Query all fundraisers in our smart contract\n  function fundraisers(uint256 limit, uint256 offset) \n    public \n    view\n    returns(Fundraiser[] memory coll)\n  {\n    require(offset <= fundraisersCount(), \"offset out of bounds\");\n    uint256 size = fundraisersCount() - offset;\n    // size should not exceed the maxLimit\n    size = size < limit ? size : limit;\n    size = size < maxLimit ? size : maxLimit;\n    coll = new Fundraiser[](size);\n\n    for(uint256 i = 0; i < size; i++) {\n      coll[i] = _fundraisers[offset + i];\n    }\n    \n    return coll;\n  }\n}",
  "sourcePath": "C:\\Users\\okwuo\\Downloads\\Attio-main\\Attio-main\\smart-contract\\contracts\\FundraiserFactory.sol",
  "compiler": {
    "name": "solc",
    "version": "0.8.0+commit.c7dfd78e.Emscripten.clang"
  },
  "schemaVersion": "3.4.16",
  "updatedAt": "2024-10-27T22:28:43.107Z",
  "networkType": "ethereum",
  "devdoc": {
    "kind": "dev",
    "methods": {},
    "version": 1
  },
  "userdoc": {
    "kind": "user",
    "methods": {},
    "version": 1
  }
}